S01000005072654C61625F362E7372656349
S11300000C9434000C9446000C9446000C94460066
S11300100C9446000C9446000C9446000C94460044
S11300200C9446000C9446000C9446000C94460034
S11300300C9446000C9446000C9446000C94460024
S11300400C9446000C9446000C9490000C944600CA
S11300500C9446000C9446000C9446000C94460004
S11300600C9446000C94460011241FBECFEFD8E038
S1130070DEBFCDBF21E0A0E0B1E001C01D92A13000
S1130080B207E1F70E946E000C94A8000C940000E3
S11300908AB18E7F8AB98AB182608AB9E0ECF0E0D5
S11300A01082808182608083E1ECF0E010828081A4
S11300B088698083E2ECF0E010828081866080832E
S11300C08FEC90E09093C5008093C40008959091C4
S11300D0C00095FFFCCF8093C60008950E9448009D
S11300E078948FEF84B915B88AB91BB888E40E9454
S11300F067008FE60E9467008CE60E94670081E635
S11301000E94670080E20E9467008091000185B927
S1130110809100018295880F880F807C8BB9F5CF80
S11301201F920F920FB60F9211248F938091C600E5
S1130130809300018091C00085FFFCCF8091000175
S11301408093C6008F910F900FBE0F901F9018954B
S1070150F894FFCF4D
S9030000FC
