S00C00004C6162362E73726563D3
S11300000C9434000C9451000C9451000C94510045
S11300100C9451000C9451000C9451000C94510018
S11300200C9451000C9451000C9451000C94510008
S11300300C9451000C9451000C9451000C945100F8
S11300400C9451000C9451000C94B0000C94510089
S11300500C9451000C9451000C9451000C945100D8
S11300600C9451000C94510011241FBECFEFD8E022
S1130070DEBFCDBF11E0A0E0B1E0E4E9F1E002C0F1
S113008005900D92A832B107D9F721E0A8E2B1E0BA
S113009001C01D92A932B207E1F70E948A000C94B4
S11300A0C8000C9400008AB18E7F8AB98AB182603C
S11300B08AB9E0ECF0E01082808182608083E1EC18
S11300C0F0E01082808188698083E2ECF0E01082A5
S11300D08081866080838FEC90E09093C50080934C
S11300E0C40008959091C00095FFFCCF8093C60092
S11300F00895AC0120E007C09091C00095FFFCCFAB
S11301003093C6002F5FFA01E20FF11D30813111E7
S1130110F3CF08950E94530078948FEF84B915B8F3
S11301208AB91BB888E40E9472008FE60E947200AC
S11301308CE60E94720081E60E94720080E20E94B6
S1130140720080E091E00E9479008091280185B9D5
S1130150809128018295880F880F807C8BB9F5CF18
S11301601F920F920FB60F9211248F938091C600A5
S1130170809328018091C00085FFFCCF80912801E5
S11301808093C6008F910F900FBE0F901F9018950B
S1070190F894FFCF0D
S11301940A0A4D75636861732067726163696173E8
S11301A420706F72207573617220656C2070726F99
S10B01B46772616D610A00002D
S9030000FC
