S0100000506F73744C6162362E7372656329
S11300000C9434000C9451000C9451000C94510045
S11300100C9451000C9451000C9451000C94510018
S11300200C9451000C9451000C9451000C94510008
S11300300C9451000C9451000C9451000C945100F8
S11300400C9451000C9451000C9453010C945100E5
S11300500C9451000C94AE010C9451000C9451007A
S11300600C9451000C94510011241FBECFEFD8E022
S1130070DEBFCDBF12E0A0E0B1E0E2E2F4E002C0F6
S113008005900D92A435B107D9F722E0A4E5B2E0BA
S113009001C01D92A735B207E1F70E94A2000C949B
S11300A00F020C940000ECE7F0E010828081806481
S11300B0808380818083808180628083EAE7F0E0AE
S11300C010828081876080838081806880838081C2
S11300D08860808308958AB18E7F8AB98AB18260EC
S11300E08AB9E0ECF0E01082808182608083E1ECE8
S11300F0F0E01082808188698083E2ECF0E0108275
S11301008081866080838FEC90E09093C50080931B
S1130110C40008959091C00095FFFCCF8093C60061
S11301200895AC0120E007C09091C00095FFFCCF7A
S11301303093C6002F5FFA01E20FF11D30813111B7
S1130140F3CF0895F8940E946B000E9453008FEF40
S113015084B915B88AB91BB8789488E40E948A00D7
S11301608FE60E948A008CE60E948A0081E60E9443
S11301708A0080E20E948A0081E091E00E9491005E
S1130180809100018130E1F51092540287E291E000
S11301900E9491008FE591E00E94910089E791E02F
S11301A00E9491008AE891E00E949100809154029B
S11301B0813321F0809154028233C1F7809154023B
S11301C0813319F0823391F01BC0EAE7F0E08081BB
S11301D080648083109200012FEF89EF90E021501A
S11301E080409040E1F700C000000AC084EA91E03A
S11301F00E94910010920001809100018823E1F394
S113020081E080930001BCCFCF93DF932DEC829FDC
S1130210C12D1124C695C695C695CC0F9C2F990F58
S1130220990FC90F982F9C1BC92F90E08C1B910923
S1130230EAE0F0E0BF010E94E701629FD12D1124A2
S1130240D695D695D695DD0F8D2F880F880FD80FAC
S1130250862F8D1BD82F7727CB018D1B9109BF01CA
S11302600E94E701629F812D1124869586958695CB
S1130270880F282F220F220F820F681B862F805D84
S11302800E948A0080E38D0F0E948A0080E38C0F15
S11302900E948A008AE00E948A008DE00E948A00FF
S11302A0DF91CF9108951F920F920FB60F921124F0
S11302B02F933F934F935F936F937F938F939F936A
S11302C0AF93BF93EF93FF938091C6008093560240
S11302D08091560280935402809100018130D1F4C0
S11302E080915402813329F489EB91E00E949100BA
S11302F011C080915402823329F482EE91E00E946D
S1130300910008C082E092E00E9491008FE292E0A6
S11303100E9491008091000181110FC080915602CA
S11303208295880F880F807C8BB9809156028695C0
S1130330869585B981E080930001FF91EF91BF918B
S1130340AF919F918F917F916F915F914F913F9169
S11303502F910F900FBE0F901F9018951F920F9220
S11303600FB60F9211242F933F934F935F936F9384
S11303707F938F939F93AF93BF93EF93FF9380915A
S11303807900809355020E94040180915502829560
S1130390880F880F807C8BB980915502869586954D
S11303A085B9EAE7F0E0808180618083FF91EF9175
S11303B0BF91AF919F918F917F916F915F914F9179
S11303C03F912F910F900FBE0F901F90189597FBA0
S11303D0072E16F4009407D077FD09D00E94FB0184
S11303E007FC05D03EF4909581959F4F0895709534
S11303F061957F4F0895AA1BBB1B51E107C0AA1F3B
S1130400BB1FA617B70710F0A61BB70B881F991FB1
S11304105A95A9F780959095BC01CD010895F8945B
S1050420FFCF08
S1130422010A0A4D756368617320677261636961C9
S11304327320706F72207573617220656C20707204
S11304426F6772616D61000A0A2D2D3EBF43FA6126
S11304526C206465206C6173207369677569656ECD
S1130462746573206F7063696F6E6573207175694B
S1130472657265207265616C697A61723F0A005B1C
S1130482315D4C65657220656C20706F74656E63B6
S1130492696F6D6574726F0A005B325D456E7669D1
S11304A261722041534349490A002D2D3E53656C24
S11304B26563696F6E6520756E61206F706369F3A1
S11304C26E3A20000A0A2D2D3E496E6772657365E5
S11304D22041534349493A20000A0A4C6579656E22
S11304E2646F20656C2076616C6F722064656C2089
S11304F2706F74656E63696F6D6574726F2E2E2EE4
S113050220000A0A4C6579656E646F20656C20765A
S1130512616C6F722064652041534349492E2E2E2B
S113052220000A0A456E747261646120696E76E184
S11305326C6964612E20506F72206661766F72203E
S1130542696E67726573652031206F20322E000A4E
S11305520A2D2D3E496E6772656365206E75657658
S1130562616D656E7465206C61206F706369F36EF2
S10705723A20000027
S9030000FC
